{
  "contractName": "SupplierContract",
  "abi": [
    {
      "constant": true,
      "inputs": [
        {
          "internalType": "uint256",
          "name": "",
          "type": "uint256"
        }
      ],
      "name": "sm",
      "outputs": [
        {
          "internalType": "bytes",
          "name": "lotno",
          "type": "bytes"
        },
        {
          "internalType": "bytes32",
          "name": "checkdate",
          "type": "bytes32"
        }
      ],
      "payable": false,
      "stateMutability": "view",
      "type": "function"
    },
    {
      "constant": true,
      "inputs": [],
      "name": "supCounter",
      "outputs": [
        {
          "internalType": "uint256",
          "name": "",
          "type": "uint256"
        }
      ],
      "payable": false,
      "stateMutability": "view",
      "type": "function"
    },
    {
      "constant": false,
      "inputs": [
        {
          "internalType": "bytes",
          "name": "lot",
          "type": "bytes"
        },
        {
          "internalType": "bytes32",
          "name": "d",
          "type": "bytes32"
        }
      ],
      "name": "check",
      "outputs": [],
      "payable": false,
      "stateMutability": "nonpayable",
      "type": "function"
    },
    {
      "constant": true,
      "inputs": [
        {
          "internalType": "bytes",
          "name": "l",
          "type": "bytes"
        }
      ],
      "name": "getcheck",
      "outputs": [
        {
          "internalType": "bytes",
          "name": "",
          "type": "bytes"
        },
        {
          "internalType": "bytes32",
          "name": "",
          "type": "bytes32"
        }
      ],
      "payable": false,
      "stateMutability": "view",
      "type": "function"
    }
  ],
  "bytecode": "0x6080604052600160005534801561001557600080fd5b50610786806100256000396000f3fe608060405234801561001057600080fd5b506004361061004c5760003560e01c806360d28ed01461005157806380bf013a14610116578063a51ec1a214610251578063bce32a09146102ff575b600080fd5b6101146004803603604081101561006757600080fd5b810190808035906020019064010000000081111561008457600080fd5b82018360208201111561009657600080fd5b803590602001918460018302840111640100000000831117156100b857600080fd5b91908080601f016020809104026020016040519081016040528093929190818152602001838380828437600081840152601f19601f8201169050808301925050505050505091929192908035906020019092919050505061031d565b005b6101cf6004803603602081101561012c57600080fd5b810190808035906020019064010000000081111561014957600080fd5b82018360208201111561015b57600080fd5b8035906020019184600183028401116401000000008311171561017d57600080fd5b91908080601f016020809104026020016040519081016040528093929190818152602001838380828437600081840152601f19601f82011690508083019250505050505050919291929050505061043e565b6040518080602001838152602001828103825284818151815260200191508051906020019080838360005b838110156102155780820151818401526020810190506101fa565b50505050905090810190601f1680156102425780820380516001836020036101000a031916815260200191505b50935050505060405180910390f35b61027d6004803603602081101561026757600080fd5b81019080803590602001909291905050506105c0565b6040518080602001838152602001828103825284818151815260200191508051906020019080838360005b838110156102c35780820151818401526020810190506102a8565b50505050905090810190601f1680156102f05780820380516001836020036101000a031916815260200191505b50935050505060405180910390f35b610307610689565b6040518082815260200191505060405180910390f35b61032561068f565b6040518060400160405280848152602001838152509050806001846040518082805190602001908083835b602083106103735780518252602082019150602081019050602083039250610350565b6001836020036101000a038019825116818451168082178552505050505050905001915050908152602001604051809103902060008201518160000190805190602001906103c29291906106ac565b506020820151816001015590505060028190806001815401808255809150509060018203906000526020600020906002020160009091929091909150600082015181600001908051906020019061041a9291906106ac565b50602082015181600101555050506000808154809291906001019190505550505050565b606060006001836040518082805190602001908083835b602083106104785780518252602082019150602081019050602083039250610455565b6001836020036101000a03801982511681845116808217855250505050505090500191505090815260200160405180910390206000016001846040518082805190602001908083835b602083106104e457805182526020820191506020810190506020830392506104c1565b6001836020036101000a038019825116818451168082178552505050505050905001915050908152602001604051809103902060010154818054600181600116156101000203166002900480601f0160208091040260200160405190810160405280929190818152602001828054600181600116156101000203166002900480156105b05780601f10610585576101008083540402835291602001916105b0565b820191906000526020600020905b81548152906001019060200180831161059357829003601f168201915b5050505050915091509150915091565b600281815481106105cd57fe5b9060005260206000209060020201600091509050806000018054600181600116156101000203166002900480601f0160208091040260200160405190810160405280929190818152602001828054600181600116156101000203166002900480156106795780601f1061064e57610100808354040283529160200191610679565b820191906000526020600020905b81548152906001019060200180831161065c57829003601f168201915b5050505050908060010154905082565b60005481565b604051806040016040528060608152602001600080191681525090565b828054600181600116156101000203166002900490600052602060002090601f016020900481019282601f106106ed57805160ff191683800117855561071b565b8280016001018555821561071b579182015b8281111561071a5782518255916020019190600101906106ff565b5b509050610728919061072c565b5090565b61074e91905b8082111561074a576000816000905550600101610732565b5090565b9056fea265627a7a723158204b44b66564b958322e2f1f7e5a9ff8494500d03251670f54afd622f7c893bd6364736f6c63430005100032",
  "source": "pragma solidity ^0.5.0;\n\ncontract SupplierContract {\nuint256 public supCounter =1;\nstruct supplier{\n    bytes lotno;\n    bytes32 checkdate;\n}\n\nmapping (bytes => supplier) s1;\nsupplier[] public sm;\n\nfunction check(bytes memory lot, bytes32 d) public {\n    SupplierContract.supplier memory snew = supplier(lot,d);\n    s1[lot] = snew;\n    sm.push(snew);\n    supCounter++; \n}\n\nfunction getcheck(bytes memory l) public view returns(bytes memory, bytes32) {\n        return (s1[l].lotno,s1[l].checkdate);\n    }\n}",
  "sourcePath": "E:\\bilel\\final_agrochain\\contracts\\SupplierContract.sol",
  "compiler": {
    "name": "solc",
    "version": "0.5.16+commit.9c3226ce.Emscripten.clang"
  },
  "schemaVersion": "3.4.3",
  "updatedAt": "2022-01-08T18:33:50.338Z",
  "networkType": "ethereum",
  "devdoc": {
    "methods": {}
  },
  "userdoc": {
    "methods": {}
  }
}